:020000040800F2
:100000000000012085080008290800082D080008C4
:100010003108000835080008390800080000000011
:100020000000000000000000000000003D08000883
:1000300041080008000000004508000849080008C1
:10004000D5080008D5080008D5080008D50800081C
:10005000D5080008D5080008D5080008D50800080C
:10006000D5080008D5080008D5080008D5080008FC
:10007000D5080008D5080008D5080008D5080008EC
:10008000D5080008D5080008D508000800000000C1
:10009000000000000000000000000000D50800087B
:1000A000D5080008D5080008D5080008D5080008BC
:1000B000D5080008D5080008D5080008D5080008AC
:1000C000D5080008D5080008D5080008D50800089C
:1000D000D5080008D5080008D50800080000000071
:1000E000D5080008D5080008D50800080000000061
:1000F000000000000000000000000000D50800081B
:1001000000000000D5080008D5080008D508000840
:1001100000000000000000000000000000000000DF
:10012000D5080008D5080008D508000859080008B7
:10013000D5080008000000000000000000000000DA
:10014000000000000000000000000000650800083A
:10015000D5080008D5080008D5080008D50800080B
:10016000D5080008D50800080000000000000000C5
:10017000000000000000000000000000000000007F
:1001800000000000D508000800000000000000008A
:04019000D508000886
:1001980010B5054C237833B9044B13B10448AFF3B9
:1001A80000800123237010BD900100200000000092
:1001B800A863000808B5034B1BB103490348AFF314
:1001C800008008BD0000000094010020A86300081A
:1001D800034613F8012B002AFBD1181A013870477F
:1001E800314A136823F0070343F0020310B5136084
:1001F800136803F00703022BFAD12C492C4B0A6829
:1002080022F4404242F400420A601A6842F4803202
:100218001A601A689003FCD558682649264A014096
:100228000A435A605A68254922F4403242F480321F
:100238005A605868224A01400A435A6019681C4AA1
:1002480041F08071196013689901FCD5174A536809
:100258005B04FCD5164CA36823F0F003A360A368E5
:1002680023F4E05343F48053A360A36823F460436A
:10027800A360A36823F0030343F00203A360A36809
:1002880003F00C03082BFAD10E4803F0E7F80F200F
:1002980000F0D0FE08B172B6FEE7D4F88C3023F037
:1002A8008073C4F88C3010BD003C024000700040E0
:1002B800003802400080BFFF195440000080BFF0A2
:1002C8001954400700BD01052DE9F04FE1B000F0D9
:1002D800D5FEFFF785FFBA4A136823F0070343F0FA
:1002E80003031360136803F00703032BFAD1B54A1D
:1002F800936823F0030343F001039360936803F0CA
:100308000C03042BFAD11368AF4923F080731360F0
:100318005068AE4B01400B4353605368AC4923F41B
:10032800403343F4803353605068AA4B01400B4379
:1003380053601368A34943F0807313600B689A01F4
:10034800FCD58B689F4C23F0030343F002038B60BA
:10035800A36803F00C03082BFAD19F4A9F49116048
:100368004FF0E0239E4E9F4A5A61F02286F82320E0
:10037800002507229D611A61CDE94455CDE946550E
:10038800236B994F9948DFF860A243F00403236375
:10039800236B03F004031593159B236B43F0800331
:1003A8002363236B03F080031693169B236B43F0A0
:1003B80001032363236B03F001031793179B4FF08B
:1003C8001C084FF4005383614FF40052C7F818809B
:1003D800012342A9CDE9422301F0BAFF012338469F
:1003E8004393469342A902234595CDF80881449347
:1003F80001F0AEFF236B7E4F43F480032363236B2E
:1004080003F480031493149BF3686E4EC3F3022322
:10041800C3F10702042A03F1040128BF04220629B4
:1004280088BFDD1E4FF0FF339340DB4303F0010329
:10043800AB40704A1B01DBB24FF00061002482F828
:100448003B33516005F032FC2822214642A805F0D2
:100458006DFF2B94736C43F480537364736C03F4D3
:1004680080531293129B336B43F001033363336B56
:1004780003F001031393A022139B0223CDE9282341
:1004880028A903234FF001084FF005095046CDE98C
:100498002C892A9301F05CFF5749584A886DDFF888
:1004A800609120F0606040F0C0608865886D20F041
:1004B800C00040F040008865886D20F440308865B1
:1004C800886D20F490708865886D20F400708865C8
:1004D800886D40F480608865886D20F4C05040F4D1
:1004E80000608865886D20F4C04040F4005088653D
:1004F800C86E20F004009FED307BC8664FF482730D
:100508004FF40060CDE943304FF400704FF002081B
:1005180042A9479010468DED4A7BCDE94844429464
:100528004694CDF8148101F0B7FF344A516821F0A0
:100538001001516042A820222146CDE91E44CDE990
:100548002044229405F0F2FECDE92844CDE92A445E
:10055800CDE92C44326C42EA08023264326C02EA79
:10056800080210921EAD109A40F2E7322946ADF803
:1005780078203846D122209201F0C6FF3A684FF021
:10058800804B22F080023A60DBF81824602042F0A9
:100598000802CBF81824012142AA42903846CDE936
:1005A8004344CDE9454401F0FBFFDBF8182422F071
:1005B800040227E0AFF30080000000000A000000FA
:1005C800003C0240003802400080BFFF196C400028
:1005D8000080BFF0196C40090000002000F36F068E
:1005E80000ED00E0DFA50100000002400008024025
:1005F8000004004000E100E00064024000300140D7
:10060800B8010020CBF818247A68DFF8C8B122F0C6
:1006180070027A60BA6822F08002BA60326B42F0E7
:1006280001023263326BCDF8A48002F0010211920C
:10063800119A28A94022504600260227CDE92C67A6
:100648002892CDE92A4401F083FE60A1D1E9000196
:1006580003230822CDE9203AADF88820504BCDF885
:100668008CA00422ADF890201022CDE91E01ADF82F
:1006780098200FCB1AAE0BAF86E80F00CDF894A0E8
:1006880087E80F00DFF850A1464B06934FF4A07E91
:10069800CDE901E4CDE90958CDE907ABCDE903443B
:1006A8004FF0F00C404BCDF800C00593624663460E
:1006B80042A9D9F8000000F09DF90546C9F80000E4
:1006C80000F084FA3949284600F0D4FA384B93E808
:1006D80003008DF8A41028900A2229A9A88805F0FB
:1006E80023FE28A8FFF774FD324B28AA1B88135253
:1006F800411C28AB19440A22E88805F015FE28A8F1
:10070800FFF766FD2C4A0346106828AAD91CD0506A
:1007180028AB0A22194442F6E06005F005FE28A835
:10072800FFF756FD254B28AA1B88135228A8FFF768
:100738004FFD81B228A805F05DFB0028F6D1204CBA
:10074800204FDFF89890DFF898A0804618AE42F660
:10075800E06B2378002BFCD03988B9F800203B885F
:100768001948ABEB030310FA81F192B29BB25046E1
:100778003B80316084F800807260A9F8008004F042
:1007880099FD0122AB88CDE901620022E988009138
:100798002846114602F0A2FEDBE700BFAFF3008057
:1007A800C0630008E50F0008C50F0008B19B3100C1
:1007B800D0630008D8630008DC630008E063000821
:1007C800B4010020AC010020C033002000300140FB
:1007D80000640240351000082D100008AE0100200A
:1007E800A430002072B6FEE782B00C4B00210091C5
:1007F8005A6C42F480425A645A6C02F48042009265
:10080800009A01911A6C42F080521A641B6C03F032
:1008180080530193019B02B0704700BF003802402B
:10082800FEE700BFFEE700BFFEE700BFFEE700BF30
:10083800FEE700BF704700BF704700BF704700BFAA
:10084800024A13680133136000F032BCB001002083
:100858000148032100F06ABB00640240014800F02F
:1008680065BE00BF80930020034AD2F8883043F465
:100878007003C2F88830704700ED00E0DFF834D02C
:100888000D480E490E4A002302E0D458C4500433E0
:10089800C4188C42F9D30B4A0B4C002301E01360B7
:1008A8000432A242FBD3FFF7DFFF05F047FDFFF755
:1008B8000BFD704700000120000000208C01002083
:1008C8002C65000890010020AC9A0020FEE700008B
:1008D800F8B5456A2B685B06044623D494F865305E
:1008E8002BB9236C1BB1B4F8442012049A612B680D
:1008F80023F42C432B602B6843F040032B600B78C8
:10090800012B4ED0022B6DD093B194F8653023B9EA
:10091800236C13B1B4F844209A612B6823F0400388
:100928002B60F8BD00BF636A1B685F06D6D5F9E780
:10093800A28F636AA66B48781204B26118739A682A
:10094800960707D400BF9A689007FBD59A681206E5
:1009580003D500BF9A681206FBD48E7801F1030E06
:10096800002E45D070460EEB060C636AA76B10F894
:10097800012BA18FB9611A739A68970707D400BF32
:100988009A689107FBD59A68120603D500BF9A6842
:100998001206FBD46045E8D10EEB06010B78012B5B
:1009A800B0D14E7801F1020E16B370460EEB060C6C
:1009B800636AA76B10F8012BA18FB9611A739A6843
:1009C800970707D400BF9A689107FBD59A68120663
:1009D80003D500BF9A681206FBD46045E8D10EEB38
:1009E8000601DBE748788E1C02F026FD314686E7D3
:1009F800714684E72DE9F04F83B0CDE90023BDF8B7
:100A08003090BDF83480BDF93860BDF93C709DF870
:100A180040B09DF858A00C46002900F0B38074221D
:100A280000210546204605F081FCDDF854C084F815
:100A380048A0BCE80F0004F1240EAEE80F00BCE8A3
:100A48000F00AEE80F00DCF80030CEF80030A36AE3
:100A5800002B3CD0E26A5C49895C5A5822F00102BA
:100A68005A505A58D20703EB010005D500BF026857
:100A7800D207FBD494F848A0BAF1010F0BD0BAF111
:100A8800020F0ED15A5822F4F0425A505A5842F4E2
:100A980020525A5005E05A5822F4F0425A505A58F7
:100AA8005A505A5822F4802222F00E025A504269B3
:100AB80022F0800242615A5842F010025A505A58A5
:100AC80022F400725A505A5842F480625A50019ADD
:100AD80000998A42134638BF0B468A4228BF0A4605
:100AE800BBF1000F39D14A456681A781A280E38016
:100AF800A4F80090A4F8028048D8984546D3119BE2
:100B0800002B43D0129B002B40D0119A6261129A9D
:100B1800A261139AE26117AB149A22620FCB0027E5
:100B280004F14C0684F808B086E80F00C4E91B7786
:100B380084F8647035B32B6F4BB101221D461B6FCF
:100B4800511C1046CAB2002BF8D184F86400204624
:100B5800E5662C6703B0BDE8F08FBBF1020F1ED02D
:100B6800BBF1010F24D0BBF1030F0FD1A8EB070194
:100B7800C91A9446484637461A46C1460EB26346D5
:100B88008046B0E7204603B0BDE8F08F742200210C
:100B9800204605F0CBFB002003B0BDE8F08FA9EBA1
:100BA8000606A8EB0707B61AFF1A36B23FB29AE74D
:100BB800A9EB0601891A944648463E461A46C1469C
:100BC8000FB2634680468EE7E4630008036B10B5F6
:100BD80004465BB1828E12049A61192002F02CFC43
:100BE800236BA28E9A61192002F026FC6369207A91
:100BF800984701462046FFF76BFE94F85A10E26CBE
:100C080064290B4628BF642384F85A300AB3D16A92
:100C1800174801FB03F3216DA0FB0303B1F5807FA7
:100C28004FEA531322D00FD801291AD0102908BF30
:100C380093631368DB0706D4136A194311621368B8
:100C480043F00103136010BDB1F5805FF1D1136467
:100C5800EFE7636D002BF6D0B4F8582019B19A610C
:100C680010BD5363E5E712049A61F9E7D363E0E73F
:100C78001F85EB5110B5C4888388013C82B00022DF
:100C8800A4B2013BCDE900419BB2114600F0DFF868
:100C980002B010BD30B52C25B0F80CE0BDF80C4002
:100CA8007444724434B42B25B0F80AE003EB0E0404
:100CB80001EB0E032A223CB4D0F824E0036C846BC9
:100CC800B0F84450B0F83CC0DEF80000010010F065
:100CD8004000F9D121F42C4141F04001CEF8001038
:100CE80013B14FEA054098614FEA0C40A06101BC7E
:100CF8008EF80C00DEF8081011F00201FAD0DEF8C8
:100D0800081011F08001FAD12C281AD0C4F818C0A4
:100D1800022201BC4FEA10218EF80C10DEF80810F0
:100D280011F00201FAD08EF80C00DEF808108900E4
:100D3800FBD0013AEDD1DEF8081011F08001FAD1AC
:100D4800D2E703B19D61DEF8000020F0400040F4D6
:100D58000060CEF8000030BD30B56D40D0F824E01A
:100D6800DEF800309C4613F04003F9D14CF0400CFB
:100D7800CEF800C0036C23B1B0F844C04FEA0C446D
:100D88009C61846B808FA0610888CEF80C002D438D
:100D980005B90231DEF8080010F00200FAD0013A75
:100DA800F2D1DEF8080010F08000FAD10BB1C3F8D8
:100DB80018C0DEF8000020F04000CEF8000030BD7A
:100DC800D0F828C05CEA0C0C3FF4C6AF30B56D40D3
:100DD800D0F824E0DEF800301C0013F040037FF464
:100DE800BFAF44F04004CEF80040DEF8044044F0C1
:100DF8000204CEF80440036C1BB1B0F8444024044C
:100E08009C61836B848F9C6100F16004C06A182325
:100E180000FB03CC0CF110004FF6FF739A42CEBFD3
:100E2800D21A13460022226043600EF10C0EC0F85D
:100E380008E0C16001682D430CBF41F4806121F4D2
:100E4800806141F0010121F40071016030BD30B5CD
:100E58009942C2BF8E4619467346BDF80C40A2425D
:100E6800C2BF964622467446B0F804E0AEF1010EC1
:100E7800714531DCB0F806C0ACF1010C62452BDCE1
:100E88007345C8BF73466445C8BF644682B00094C2
:100E98005D1A05F10105A41A05FB04550400FFF7C6
:100EA800F9FE02B00498C0F3C401C0F3852241EAF8
:100EB8004211C0F3C44241EAC221A4F868102000DC
:100EC80000F168012A000125D0F828C05CEA0C0C62
:100ED8003FF444AFFFF77CBF30BD30B5B0F804E055
:100EE800714521D201EB030CF4451DD8B0F806E09A
:100EF800724519D2039C1519754515D804FB03F4DE
:100F0800013D82B00095ACF101030500FFF7C2FE78
:100F180002B0280004992200059BBDE830401B431D
:100F28003FF41AAFFFF74CBF30BD000000B50B000F
:100F3800032BC6BF043B4FF00C0E4FF0080E0FF208
:100F4800740C1CF803C03F2202FA0CF240F80E2081
:100F5800182201FB020000F11000016821F00101D4
:100F68000160016811F00101FBD1134B1B681A6E77
:100F78006AB14FF6FF718A42CEBF521A114600225B
:100F880041601A66016841F00101016000BD586ABC
:100F9800416821F002014160816811F08001FBD1B4
:100FA8001A6C12B1B3F844109161016821F0400144
:100FB800016000BD00061016B80100200138C0B25B
:100FC80002289CBF034B1B5C034888BF0023C375E2
:100FD800704700BFEC6300080400002000B54FEA2A
:100FE800102C4FF0000E6CF3070E60F30F2E100A52
:100FF80060F3174E62F31F6E4FF0000C0A0A62F39B
:10100800070C61F30F2C1A0A054862F3174C63F3B7
:101018001F6CC0F803E0C0F80AC05DF804FB00BF0D
:10102800740000200048704788000020004870477E
:101038009000002038B50E4A0E4B12781B68054602
:101048004FF47A70B0FBF2F0B3FBF0F000F0B2F8B6
:1010580008B90F2D01D9012038BD0446024629469A
:101068004FF0FF3000F05AF8034B20461D6038BDA2
:1010780096000020000000209800002008B50B4BC7
:101088001A6842F400721A601A6842F480621A60A0
:101098001A6842F480721A60032000F02DF80F20BD
:1010A800FFF7C8FFFFF7A0FB002008BD003C024087
:1010B800034A044B11681B780B441360704700BF48
:1010C800BC01002096000020014B1868704700BF43
:1010D800BC01002038B50446FFF7F6FF631C05463F
:1010E80002D0044B1B781C44FFF7EEFF431BA342BE
:1010F800FAD338BD960000200749CA6803024FF6A4
:10110800FF0003F4E0630240134343F0BF6343F47A
:101118000033CB60704700BF00ED00E01C4BDB687C
:10112800C3F3022300B5C3F1070EBEF1040F03F1A8
:10113800040C28BF4FF0040EBCF1060F1BD9033B6B
:101148004FF0FF3C0CFA03FC22EA0C024FF0FF3C84
:101158000CFA0EFC21EA0C019940002841EA020130
:101168000CDB00F16040090100F56140C9B280F86C
:1011780000135DF804FB00221346E7E7054B00F077
:101188000F0009010344C9B219765DF804FB00BFDA
:1011980000ED00E0FCEC00E0002807DB4109044A10
:1011A80000F01F000123834042F82130704700BF40
:1011B80000E100E00138B0F1807F10D210B44FF0A8
:1011C800E023084C58614FF0F00C84F823C000224B
:1011D800072110469A615DF8044B19617047012098
:1011E800704700BF00ED00E02DE9F04F00220C68C9
:1011F800714E85B013464FF0010A894604E0013369
:10120800102B02F1020279D00AFA03F101EA040B69
:10121800A143F4D1D9F804C00CF003014D1E012DEF
:101228006FD9032940F0B0809140CD4307683D4015
:1012380029431CF4403F0160E1D0604D0021039137
:10124800696C41F480416964696C01F480410391DF
:10125800039923F0030101F1804101F59C3103F06A
:1012680003078D68BF004FF00F0E0EFA07FE25EA40
:101278000E08534DA84217D005F58065A84200F026
:101288008780504DA84200F088804F4DA84200F05A
:101298008B804E4DA8420CBF4FF0040E4FF0070E46
:1012A8000EFA07F748EA0708C1F80880B1686FEA3C
:1012B8000B051CF4801F0CBF29404BEA0101B160EB
:1012C800F1681CF4001F0CBF29404BEA0101F160D2
:1012D80071681CF4003F0CBF29404BEA01017160A2
:1012E80031681CF4803F03F101030CBF29404BEA2D
:1012F8000101102B316002F1020285D105B0BDE871
:10130800F08FD9F80C50D0F808E005FA02F7032559
:1013180005FA02F82EEA080E47EA0E0787604768C2
:1013280027EA0B0ECCF300179F4047EA0E076FEA37
:1013380008054760C76807EA050ED9F8087097409E
:1013480047EA0E070229C76001FA02F17FF46EAF7F
:101358004FEAD30E00EB8E0E03F00708DEF820707C
:101368000097D9F810704FEA880807FA08F701972C
:101378000F2707FA08F8009F27EA0808019F47EA9D
:101388000807CEF8207051E703259540ED43D1E7D3
:101398000AFA07F748EA070886E74FF0020E0EFA3E
:1013A80007F748EA07087FE74FF0030E0EFA07F73A
:1013B80048EA070878E700BF003C014000380240CF
:1013C8000000024000080240000C024000100240E9
:1013D800F0B58BB0002800F0858090F8BD34046823
:1013E800054603F0FF02002B76D02046032385F83C
:1013F800BD34E36B2E4613F4807308BF2B6101F0F4
:10140800ABFA56F810EBB446BCE80F006C460FC4B4
:10141800BCE80F000FC49CE8030084E803002F1DFC
:1014280097E80E00704601F093F9044630B10124A4
:101438000223204685F8BD340BB0F0BD014628686C
:1014480001F092FA686858B322464FF0010E21461F
:1014580002EBC20305EB830302F1010C83F83C2085
:10146800A3F844205FFA8CF28242C3E9121183F890
:101478003DE083F840105965EAD3002204EBC40329
:1014880005EB8303611C83F87C42CCB28442C3E938
:10149800A22283F87D2283F88022C3F89422EDD318
:1014A8000FCE6C460FC40FCE0FC496E8030084E835
:1014B800030097E80E00286801F08EFA0446002819
:1014C800B5D1012385F83800286885F8BD3401F0C6
:1014D80033FF20460BB0F0BD80F8BC2404F074FD47
:1014E800286883E7012420460BB0F0BD10B590F8BA
:1014F800BC34012B0446006816D0A36A012293422B
:1015080084F8BC2408D001F01FFA206801F004FF19
:10151800002084F8BC0410BDA3699342F3D0836B08
:1015280043F480338363EEE7022010BD2DE9F04FCA
:10153800056889B00446284601F03CFF10B109B09F
:10154800BDE8F08F8346206801F006FF0028F6D03A
:10155800D5F808382068C3F30D23C4F8FC3401F02B
:10156800FBFE10F0020F206805F5006303931EBF11
:10157800436903F00203436101F0EEFE10F0100F1F
:10158800206812D0836923F0100383612E6AC6F3A2
:101598004343022B06F00F0700F0CA83062B00F026
:1015A8000783836943F01003836101F0D5FE0703C5
:1015B80000F16982206801F0CFFE460300F1118234
:1015C800206801F0C9FE0028C0F28281206801F07D
:1015D800C3FE070500F13D81206801F0BDFEC0048F
:1015E80000F1A081206801F0B7FE10F4005F2068C8
:1015F80040F0818101F0B0FE010700F1E981206827
:1016080001F0AAFE020671D5AA69636822F0800279
:10161800012BAA616AD994F8A322012A00F0E98370
:10162800022B63D994F8C722012A00F0FD83032B0B
:101638005CD994F8EB22012A00F0B382042B55D927
:1016480094F80F23012A00F0C682052B4ED994F88E
:101658003323012A00F02584062B47D994F8572311
:10166800012A00F03284072B40D994F87B23012A01
:1016780000F04884082B39D994F89F23012A00F0F8
:101688005584092B32D994F8C323012A00F06284C7
:101698000A2B2BD994F8E723012A00F06F840B2B2F
:1016A80024D994F80B24012A00F07C840C2B1DD932
:1016B80094F82F24012A00F07D840D2B16D994F874
:1016C8005324012A00F09D840E2B0FD994F8772417
:1016D800012A00F0A4840F2B08D994F89B34012B1D
:1016E80004D1206804F5936101F02CFD206801F015
:1016F80033FEC30240F1AB806368012B40F289805E
:1017080094F86420D5F82019012A00F01382022BDE
:101718007FD994F88820D5F84019012A00F01D8255
:10172800032B76D994F8AC20D5F86019012A00F07B
:101738002082042B6DD994F8D020D5F88019012A7D
:1017480000F02382052B64D994F8F420D5F8A01969
:10175800012A00F04283062B5BD994F81821D5F8AA
:10176800C019012A00F05483072B52D994F83C2160
:10177800D5F8E019012A00F05F83082B49D994F8BD
:101788006021D5F8001A012A00F06283092B40D99C
:1017980094F88421D5F8201A012A00F076830A2BC0
:1017A80037D994F8A821D5F8401A012A00F0818386
:1017B8000B2B2ED994F8CC21D5F8601A012A00F009
:1017C80095830C2B25D994F8F021D5F8801A012A95
:1017D80000F0A0830D2B1CD994F81422D5F8A01A78
:1017E800012A00F0AB830E2B13D994F83822D5F8D0
:1017F800C01A012A00F0B6830F2B0AD994F85C228C
:10180800D5F8E01A012A00F0C183102B01D9D5F8C8
:10181800003B2068436903F48013436101F09CFD99
:10182800870221D4206801F097FD400000F1C780AD
:10183800206801F091FD41077FF581AE23685D685E
:101848006A0700F196825A682A435A6077E6206848
:10185800E4E7039B9B68DE0700F187822068436901
:1018680003F400634361B8E6D4F804C0BCF1010F87
:1018780028D905F532622346012106E00131614588
:1018880002F1200203F124031CD093F8A402166885
:101898000128F3D1002EF1DAD4F8FC7406F480366E
:1018A80007F00107BE42E9D183F8A302A86940F016
:1018B8008000A86168690606E0D4039A536843F477
:1018C800007353602068436903F400134361AAE777
:1018D800039A536823F00103536094F8F434012BFE
:1018E80000F03481204604F0F9FB2068436903F0D6
:1018F800004343616BE601F061FD206801F0B0F937
:10190800E060266800F01EFD227B0146304600F0AC
:10191800A1FF204604F0B8FB2068436903F4005394
:10192800436167E6039A2068536823F00103536014
:10193800102101F06BF96068E0B105F510634FF60E
:101948007F3199601A6822F400121A60C3F80812ED
:10195800D3F8002222F40012C3F80022D3F80022A0
:101968000BF1010B42F000628345C3F8002203F13A
:101978002003E6D10399226BCB6943F00113CB61B5
:10198800002A40F0CC804B6943F4005343F02B030A
:101998004B610B6943F00B030B61D5F80038217CD0
:1019A800206823F4FE63C5F8003804F2C44201F04D
:1019B80017FD2068436903F48053436113E620460A
:1019C80004F098FB2068436903F08043436130E7E3
:1019D800204604F055FB2068436903F0080343617F
:1019E8000EE6206801F0C4FC804600283FF4E8AD0C
:1019F8004FF0000A20680495274605F510695646F9
:101A0800CDF814B009E05FEA580806F1010607F1BD
:101A1800240709F1200900F0E58018F0010FF2D041
:101A28005FFA86FA514601F0B5FCC207054613D5A0
:101A3800039901204B6B06F00F0200FA02F223EA29
:101A480002034B632169C9F80800814200F09681BE
:101A58005146204604F00AFB2B0744BF0823C9F867
:101A68000830E80644BF1023C9F80830690644BFA7
:101A78004023C9F80830AA0700F14D812B0600F170
:101A8800F5802068BFE7206801F06AFC0646002858
:101A98003FF490AD05F53067A2464FF00009CDF848
:101AA80010B008E0760809F1010907F120070AF1EA
:101AB800240A00F09A80F007F4D55FFA89FB2068C1
:101AC800594601F05DFC10F0010F804640F0AF80F0
:101AD80018F0080F40F08C8018F0100F1CBF10226F
:101AE800BA6018F0020F0ED06A69110604D5039B7C
:101AF8005A6842F480625A609AF87F22012A00F0FC
:101B08007F810223BB6018F0200F1CBF2023BB601D
:101B180018F4005F1CBF4FF40053BB60C2E7D1F854
:101B2800843043F00B03C1F884304B6C43F00B0353
:101B38004B6432E70029BFF6EAAD214684F86320FA
:101B480051F8600B01F0FEFA6368E0E5002184F8C3
:101B5800F414204600F0F4FBC7E60029BFF6E0AD18
:101B6800214684F8872051F8840B01F0EBFA63686A
:101B7800D6E50029BFF6DDAD214684F8AB2051F843
:101B8800A80B01F0DFFA6368D3E50029BFF6DAADE8
:101B9800214684F8CF2051F8CC0B01F0D3FA6368C2
:101BA800D0E5206804F53A7101F0CCFA636845E5A0
:101BB800082204F2C441284607EBC70701F01CFBC2
:101BC80004EB8702C6F30A13D2F89C1220680B4470
:101BD800C2F89C32E5E4206804F5437101F0B2FADA
:101BE800636832E5DDE9045BEBE4DDF810B0E1E4BD
:101BF8002168BC4B0822BA6001F53062096C02EB1F
:101C080049129942906840F2CA80000402D54FF404
:101C180000419160204604F019FA216901297FF4F6
:101C28005BAF206804F2C44201F0DAFB54E7206895
:101C380021690122BA6000F5306202EB49120129DC
:101C4800D0F840C0936800F0AE80A7498C4500F0FA
:101C58000B81B9F1000F04D1D4F89422002A00F0C6
:101C6800D8815946204604F0F7F931E7FB6D7D6DC0
:101C7800D4F800B0AB4258463FF6C5AE0BF510623B
:101C880002EB461296469269B96CCDF81CB01FFA61
:101C980082FCEA1A8A4228BF0A460332BCEB920F3A
:101CA800C0F0978052460696CA462646C1467446F4
:101CB800904619E0ED1ABB6CF96C9D4228BF1D4691
:101CC800337C00934246ABB2584601F07FFAFB6C76
:101CD800A1692B44FB64FB6D89B22B440335B1EB3E
:101CE800950FFB656DD37D6DAB42E3D33446069EFD
:101CF800D4F800B0C846D146079B06F00F0203F59A
:101D080000610125D3F8343805FA02F223EA020308
:101D180058464B6377E60498314600F077FF97F80A
:101D28003F30012B00F0A8800223C9F80830A5E64F
:101D380047F6F0731E423FF434AC07EBC70704EBD9
:101D48008707C6F30A12D7F88C122846164601F000
:101D580053FAD7F88C3220683344C7F88C32D7F856
:101D68009C323344C7F89C321BE4204604F09EF9A9
:101D780074E5204604F0C2F9236864E5D7E9122324
:101D88001344FB64002E7FF463AE636D002B7FF475
:101D98005FAE206804F2C44201F022FB58E62046F8
:101DA80004F054F998E6190740F197804D498C459D
:101DB8007FF68EAE18047FF58BAE4FF4004191602C
:101DC80086E634467D6DD4F800B0069EC84658466F
:101DD800D1469D423FF617AE8EE70029BFF6BBAC51
:101DE800214684F8F32051F8F00B01F0ABF9636851
:101DF800B1E4206804F5287101F0A4F963680FE4E0
:101E0800002359468AF87F32204604F06BF978E6B9
:101E18000029BFF6A9AC206884F8172104F58A7157
:101E280001F090F963689FE4206804F5317101F0CE
:101E380089F96368FFF7FBBB0029BFF69EAC2068F1
:101E480084F83B2104F59C7101F07CF9636894E403
:101E58000029BFF69BAC206884F85F2104F5AE71B9
:101E680001F070F9636891E41904A6D49B067FF524
:101E7800F8AE20219160F4E64FF0000387F83F3078
:101E88005146204604F032F94EE70029BFF687ACE8
:101E9800206884F8832104F5C07101F053F9636860
:101EA8007DE4206804F54C7101F04CF96368FFF794
:101EB800D3BB0029BFF67CAC206884F8A72104F5C1
:101EC800D27101F03FF9636872E4206804F5557136
:101ED80001F038F96368FFF7C6BB990672D520216F
:101EE8009160F5E50A30544F0A31544F0029BFF686
:101EF80068AC206884F8CB2104F5E47101F022F97C
:101F080063685EE4206804F55E7101F01BF963689C
:101F1800FFF7B0BB0029BFF65DAC206884F8EF215D
:101F280004F5F67101F00EF9636853E4206804F5CE
:101F3800677101F007F96368FFF7A3BB0029BFF6D3
:101F480052AC206884F8132204F5047101F0FAF801
:101F5800636848E4206804F5707101F0F3F8636879
:101F6800FFF796BB0029BFF647AC206884F83722F4
:101F780004F50D7101F0E6F863683DE4206804F5A6
:101F8800797101F0DFF86368FFF789BB0029BFF6B4
:101F98003CAC206884F85B2204F5167101F0D2F895
:101FA800636832E4206804F5816101F0CBF8636866
:101FB800FFF77CBB206804F22C4101F0C3F863688A
:101FC800FFF77BBB13F0280F7FF482AD1B498C45CC
:101FD80002D91B043FF5F1AE1169DAF89822C1F372
:101FE8001201521ACAF89C22B9F1000F7FF439AED7
:101FF800D4F89412D9B1D4F88C121144C4F88C12C4
:102008002FE6206804F58A6101F09CF86368FFF701
:102018005BBB04F2C442494601F0E2F921E62068BC
:1020280004F2744101F08EF86368FFF754BB04F2C0
:10203800C442012101F0D4F913E600BF0A30544F1D
:1020480090F8BC24012A0DD010B50446012200687E
:1020580084F8BC2484F8381001F04EF9002084F884
:10206800BC0410BD0220704710B501F00F0E090620
:10207800044627D44FF0240C0CFB0E0C0CF51F71F2
:102088000EEBCE0C00EB8C0C00208CF87D02CA60A5
:102098004A7881F800E00B710AB1A1F808E0022B38
:1020A80004BF00234B7194F8BC34012B18D00123D2
:1020B80084F8BC34206800F0DFFD002384F8BC34C9
:1020C800184610BD242000FB0E4000F13C010EEB29
:1020D800CE0004EB80004FF0010C80F83DC0D6E73D
:1020E800022010BD01F00F0303EBC30211F0800FB3
:1020F8004FF0240110B500EB8202044601FB0301F6
:1021080013D101F51F71002082F87D020B7094F83D
:10211800BC34012B12D00123206884F8BC3400F0B1
:10212800F7FD002084F8BC0410BD3C31012082F882
:102138003D000B7094F8BC34012BECD1022010BD8B
:1021480010B501F00F0404EBC40C00EB8C0C242137
:10215800CCF894320023CCF88C228CF87C42CCF852
:102168009C328CF87D32036901FB0401012B08BF06
:10217800CCF89022006801F51F71DAB21CB900F0A2
:1021880035FF002010BD00F025FE002010BD00BF67
:1021980001F00F0101EBC10100EB8100D0F89C02B6
:1021A800704700BF10B501F00F0404EBC40C00EB3E
:1021B8008C0C2421CCF854300023CCF85C3001235B
:1021C800CCF84C208CF83C408CF83D30036901FB7E
:1021D8000401012B08BFCCF8502000683C31DAB26A
:1021E8001CB900F003FF002010BD00F0F3FD002033
:1021F80010BD00BF38B5436801F00F059D4233D8C4
:102208000B0604461CD401EBC103242202FB010186
:1022180000EB830301F51F71002283F87D2201235F
:102228008B700D7094F8BC249A421BD0206884F8F7
:10223800BC3401F007F8CDB1002084F8BC0438BDE7
:1022480005EBC503242101FB050100EB83030122F3
:102258003C3183F83D2001238B700D7094F8BC2429
:102268009A42E3D1022038BD012038BD217C206884
:1022780004F2C44201F0B4F8DEE700BF426838B5A2
:1022880001F00F0393422ED803EBC30211F0800F25
:102298004FF02401044600EB820201FB030115D133
:1022A80001F51F710020002582F87D028D700B70EA
:1022B80094F8BC34012B14D00123206884F8BC3472
:1022C80000F0EEFF84F8BC54284638BD3C310120AC
:1022D800002582F83D008D700B7094F8BC34012BFA
:1022E800EAD1022038BD012038BD00BF10B404680F
:1022F800636A31B943EA0242A26200205DF8044BE6
:102308007047A06A013903EB104C0BD0002303F18E
:10231800400004EB800001334068DBB28B420CEBD9
:10232800104CF4D3403104EB81044CEA0242626061
:1023380000205DF8044B704703680020596270471D
:10234800704700BF014B1868704700BF00000020AD
:102358002DE9F0470C6894FAA4F2B2FA82F234FA42
:1023680002F37DD04FF0010E4FF0030C4FF00F0A2F
:1023780017E0D0F8008093FAA3F7B7FA87F793FA33
:10238800A3F3B3FA83F37F000CFA07F75B0028EA9C
:1023980007089D4048EA05050560013234FA02F352
:1023A8005ED00EFA02F32340F7D04D686F1E012F5E
:1023B8001FD8D0F8088093FAA3F7B7FA87F793FAEB
:1023C800A3F98E68B9FA89F97F000CFA07F74FEA82
:1023D800490928EA070706FA09F847EA080787605B
:1023E8004768CE6827EA030706FB03F847EA0807A9
:1023F8004760D0F80C8093FAA3F7B7FA87F793FAF7
:10240800A3F97F000CFA07F728EA0708B9FA89F94F
:102418000F694FEA490907FA09F948EA0907022D3D
:10242800C760A6D193FAA3F7B7FA87F7072F1ADC84
:10243800D0F8208093FAA3F7B7FA87F793FAA3F9AD
:102448004E69B9FA89F9BF000AFA07F74FEA89090C
:1024580028EA070706FA09F847EA0807076288E73B
:102468000020BDE8F087D0F824901F0A97FAA7F853
:10247800B8FA88F897FAA7F74E69B7FA87F74FEAD4
:1024880088080AFA08F8BF0029EA080906FA07F7CF
:1024980049EA070747626CE70246006810F0400007
:1024A80028D1136830B423F47F4CD1E900352B438D
:1024B8008D684C692B43CD682B430D692B438D697F
:1024C80023432B43CD692B430D6A2CF0BF0C2B43C0
:1024D80043EA0C031360536823F0040343EA1443EC
:1024E800B5F5005F53600BD0D36923F4006330BCAB
:1024F800D3617047D36923F400630120D361704727
:102508008B8C1361F0E700BF244A0368904230B413
:1025180034D0B0F1804F1DD0A2F57C42904219D042
:1025280002F58062904215D002F58062904211D087
:1025380002F59A32904211D002F5806290420DD095
:1025480002F58062904209D08C680A880360C462F0
:1025580082620CE04A6823F070031343CD688C68EC
:102568000A8823F440732B430360C4628262436980
:1025780043F00103436130BC002070474C68CA68CF
:1025880023F07003234323F44073134303608A68E2
:102598000B88C26283620B690363E8E700000140AD
:1025A800B1F5807F30B403466CD025D801294BD0D3
:1025B800102946D1016A156921F010010162016AEA
:1025C80040689C6921F0200141EA0511156824F44E
:1025D800E64444EA0524556821F0100141EA051152
:1025E8005A4DAB4200F09780D26858609C61002039
:1025F8009A6330BC19627047B1F5805F21D1016AD6
:10260800156921F480510162016A4068DC6921F48E
:10261800005141EA0531156824F4E64444EA0524EA
:10262800556821F4805141EA0531484DAB4200F02C
:102638008780D2685860DC6100201A6430BC196257
:102648007047012030BC7047016A156921F001010B
:102658000162016A40689C6921F0020129431568FA
:1026680024F073042C43556821F001012943374DA8
:10267800AB423CD0D26858609C6100205A6330BCA1
:1026880019627047016A156921F480710162016A53
:102698004068DC6921F4007141EA0521156824F0DD
:1026A80073042C43556821F4807141EA0521274DB4
:1026B800AB4207D0D2685860DC610020DA6330BCD6
:1026C80019627047556921F4006141EA85219569CD
:1026D80020F4805040EA0510956821F4806141EAB1
:1026E8008521D56920F4005040EA4510E2E7556994
:1026F80021F0080141EA8501956920F4807028439A
:10270800956821F0040141EA8501D56920F400703B
:1027180040EA4500AEE7556921F0800141EA85119C
:10272800956920F4806040EA8500956821F04001B1
:1027380041EA8511D56920F4006040EAC50053E7F5
:10274800956920F4804040EA851072E70000014056
:1027580084B082B00DF10C0C8CE80E00089A012AA6
:1027680003462CD1826B0F9922F480328263C268AF
:1027780022F4840222F04002C260C268012922F4D5
:102788004012C2605FD000223149009202E01A690B
:10279800002A2DDB009A01320092009A8A42F6D96B
:1027A8000320069A012A07D19A6842F006029A6025
:1027B8009A6842F020029A6002B004B07047C2687A
:1027C8002349002042F04002DA60019002E01A69D1
:1027D800002A25DB019A01320192019A8A42F6D930
:1027E80003200C9ABAB99A6B42F480329A63D8E7FC
:1027F800002200921A69164942F001021A6103E0A8
:10280800186910F00100CCD0009A01320092009AA9
:102818008A42F5D9C4E79A6B22F480329A63C0E7FA
:10282800002201921A690A4942F001021A6103E082
:10283800186910F00100D4D0019A01320192019A6E
:102848008A42F5D9CCE7C26842F48012C2609AE79E
:10285800400D0300022A03460AD04FF41051DA68EB
:1028680022F47052DA60DA680A430020DA607047AE
:10287800264A27480A44824232D9264A26480A4428
:10288800824230D92548A1F57402A2F5105282423D
:102898002CD92348A1F18372A2F5E742824228D3BA
:1028A800204A21480A44824226D9204A20480A441C
:1028B800824224D31F4A20480A448242CDD31F486B
:1028C800A1F1B772A2F5585282421BD31C4A1D4887
:1028D8000A44824234BF4FF4E0514FF4C051BEE77E
:1028E8004FF47051BBE74FF46051B8E74FF45051C3
:1028F800B5E74FF44051B2E74FF43051AFE74FF42A
:102908002051ACE74FF40051A9E700BF405327FF1F
:10291800FF340C00401E1BFF3F420F007F4F120088
:1029280020D6130060B6E5FE5FE3160000D3CEFEA6
:1029380040771B00C05BB3FEC091210020753800B2
:10294800E05459FEE09C4100034600209A6842F09A
:1029580001029A60704700BF034600209A6822F07F
:1029680001029A60704700BF38B5C368012923F097
:10297800C0430546C36018D0A9B9C36843F0804373
:102988000C46C36001E0322C0DD00120FEF7A2FBFB
:102998006B69DB0704F10104F5D4A4F13200B0FA45
:1029A80080F0400938BD012038BDC36843F00053AA
:1029B8000024C36001E0322CF5D00120FEF78AFB29
:1029C8006B69DA0704F10104F5D5A4F13200B0FA15
:1029D80080F04009E6E700BF84B02DE9F04383B0FA
:1029E8000BAC159D84E80E000022C0F804210346B4
:1029F800C0F808210C46C0F80C21C0F81021C0F816
:102A08001421C0F81821C0F81C21C0F82021C0F8F2
:102A18002421C0F82821C0F82C21C0F83021C0F8A2
:102A28003421C0F83821C0F83C21002D40F0AD8099
:102A3800D0F8042800F5006C42F00202CCF804201B
:102A4800826B42F400128263826B22F4002282635A
:102A5800826B22F4802282630022C3F8002EDCF805
:102A68000020CCF80020109A012A00F0BC80DCF885
:102A7800002042F00302CCF80020002261490092B5
:102A880003E01A69002AC0F29B80009A0132009282
:102A9800009A8A42F5D9012000225A49019202E09F
:102AA8001A69002A7CDB019A01320192019A8A4252
:102AB800F6D901200021CCF81010CCF81410CCF86D
:102AC8001C10E4B103F510620F464FF090484FF028
:102AD80000694FF67F3E08E0176001318C421761AC
:102AE800C2F808E002F1200231D01668002EF3DAAD
:102AF80011B1C2F80080F0E7C2F80090EDE7DCF809
:102B0800102022F48072CCF8102000210E9A9961CE
:102B18006FF0804159611AB99A6942F010029A61BE
:102B28009969394A0A4311999A6119B19A6942F027
:102B380008029A61012D05D19A6942F0804242F05B
:102B480004029A6103B0BDE8F04304B07047002165
:102B580003F530620F464FF090484FF000694FF68A
:102B68007F3E08E0176001318C421761C2F808E027
:102B780002F12002C3D01668002EF3DA11B1C2F8B0
:102B88000080F0E7C2F80090EDE7826B22F40012B3
:102B98008263826B42F4002200F5006C82635BE77B
:102BA80000220192102217491A6102E01A69D2061E
:102BB80080D5019A01320192019A8A42F6D978E7C2
:102BC800002200924FF484620E491A6104E01869E9
:102BD80010F020003FF460AF009A01320092009A92
:102BE8008A42F4D957E70D9A22B9DCF80020CCF8CC
:102BF800002042E7DCF8002042F00102CCF8002077
:102C08003BE700BF400D030000383C8082B0002342
:102C1800124A019302E00369002B08DB019B013390
:102C28000193019B9342F6D9032002B070478901B2
:102C3800002341F020010193084A016103E0036980
:102C480013F0200306D0019B01330193019B9342AB
:102C5800F5D9E9E7184602B0704700BF400D0300F8
:102C6800D0F8083813F0060004D013F0020F14BF90
:102C780002200F20704700BF30B44B780A78012B30
:102C880022D0D0F81C4802F00F0C4FF4803303FA1E
:102C98000CF3234300EB4212C0F81C38D2F8003B77
:102CA8001B040ED4CB68D2F8000B0979C3F30A03CE
:102CB800034343EA814343F0805343F40043C2F89B
:102CC800003B002030BC7047D0F81C5802F00F0CB5
:102CD80003FA0CF300F500642B4300EB4210E361A8
:102CE800D0F800391C04ECD4CB68D0F80049097935
:102CF800C3F30A03234343EA814343EA825343F07D
:102D0800805343F40043C0F8003930BC00207047BA
:102D180010B44A780B78012A00EB43122CD0D2F871
:102D2800001B00291BDBD0F83C484FF4803103F02E
:102D38000F0301FA03F324EA0304C0F83C48D0F86F
:102D48001C48224924EA0303C0F81C38D2F8003B87
:102D58005DF8044B19400020C2F8001B7047D2F8F8
:102D6800001B41F00061C2F8001BD2F8001B41F0C3
:102D78008041C2F8001BD6E7D2F8001900290BDA07
:102D8800D2F8001941F00061C2F80019D2F8001910
:102D980041F08041C2F80019D0F83C1803F00F0444
:102DA8000123A34021EA0301C0F83C18D0F81C48CD
:102DB800074924EA0303C0F81C38D2F800395DF843
:102DC800044B19400020C2F8001970470078F3EF4F
:102DD800007833EC2DE9F0414C7891F800C0012CD3
:102DE8004FD000EB4C1C0CF530631C69E40CE40478
:102DF8001C611C6924F0FF5424F4C0141C618C6904
:102E080074B3CD68784E2C44013CB4FBF5F4A4B2FD
:102E180004FB05F506EAC4441E69CD6134431C6110
:102E28001C69C5F312052543012A1D6124D00B79BD
:102E3800012B0CD1D0F8083813F4807FDCF8003B64
:102E48000CBF43F0005343F08053CCF8003BDCF850
:102E5800003B43F00443CCF8003B0020BDE8F08180
:102E6800CC681D69C4F312042C431C611C69012A37
:102E780044F400241C61DAD10A69002AD7D05A61C7
:102E8800D5E78E6900EB4C15DEB3D5F81039CF685D
:102E9800DB0CDB04C5F81039D5F8103923F0FF53E3
:102EA80023F4C013C5F810394F4BD5F8108906EB39
:102EB800070E0EF1FF3EBEFBF7FE03EACE4343EAE0
:102EC8000803C5F81039D5F81079C6F312033B4347
:102ED800C5F810390F79012F05F5106353D0012A71
:102EE8006DD0D5F8003943F00443C5F80039D0F85F
:102EF80034280CF00F0C04FA0CF31343C0F83438E0
:102F0800ABE7D5F8104924F0FF5424F4C014C5F8F1
:102F18001049D5F8104944F40024C5F81049D5F8EB
:102F28001049E40CE404C5F81049012A05F51063BA
:102F38000F7939D0D5F80049012F44F00444C5F879
:102F480000498AD1D0F8084814F4807F1C680CBF67
:102F580044F0005444F080541C60002A7FF47DAF94
:102F6800B6B20336B6083FF478AF0B6900EB0C3CF9
:102F78000CF5805C03EB860153F8042BCCF8002099
:102F88008B42F9D169E71C6924F0C0441C611C69B3
:102F9800012A44F000541C6116D0D5F8004944F0C9
:102FA8000444C5F80049CDE74A695AB9012F0ED043
:102FB8001A6842F004421A600020BDE8F0814A69AC
:102FC800002AF5D05A61F1E74A69002AFAD1D0F807
:102FD800082812F4807F1A680CBF42F0005242F0B1
:102FE80080521A60E4E700BF0000F81F4B78012BFD
:102FF800F0B40C7828D000EB441000F530631C695D
:10300800E40CE4041C611C6924F0FF5424F4C0148B
:103018001C618C69ACB9CC681D69CC6145F400258C
:103028001D611D69C4F312042C43012A1C6143D09D
:10303800D0F8003B43F00443C0F8003B0020F0BC4C
:103048007047CC688C61E7E78D69002D39D000EBBB
:10305800441CCE68DCF81039DB0CDB04CCF81039E2
:10306800DCF8103923F0FF5323F4C013B542CCF831
:1030780010390CF5106352D91D698E6145F400258D
:103088001D611F69C6F312053D43012A1D613CD02D
:10309800DCF8003943F00443CCF80039002ECDD0D9
:1030A800D0F8342804F00F040123A3401343C0F8D8
:1030B8003438F0BC002070470A69002AB8D05A6139
:1030C800B6E700EB4410012AD0F8104924F0FF5469
:1030D80024F4C014C0F81049D0F8104944F400246E
:1030E800C0F81049D0F810494FEAD4444FEAC44414
:1030F80000F510631C6108D0D0F8003943F0044390
:10310800C0F80039F0BC002070474A6902B15A6122
:103118001A6842F004420020F0BC1A6070471E6929
:1031280046F400261E611E69C5F312053543012ABF
:103138001D61EAD0DCF8003943F00443CCF80039CB
:10314800AEE700BF4B7882B00022012B01920B78CA
:1031580020D000F5306000EB43100368002B02DB41
:10316800002002B07047036843F0006303600368FF
:1031780043F0804342F21072036002E00368002BC0
:10318800EEDA019B01330193019B9342F6D90120AA
:1031980002B0704700F5106000EB43131A68002A6C
:1031A800DEDA1A6842F000621A601A6842F0804259
:1031B80042F210711A6002E01A68002AD0DA019A05
:1031C80001320192019A8A42F6D9E0E710B49DF8DB
:1031D800044064B903339B0809D0013200EB023084
:1031E80001EB830351F8042B02608B42FAD10020D3
:1031F8005DF8044B704700BF30B55FEA920E02F0ED
:1032080003050BD000F580548C4600230133226857
:103218004CF8042B9E45F9D101EB8E017DB100F5E8
:1032280080506B1E02680A709BB23BB1012B4FEABB
:10323800122018BF120C487018BF8A70294408461B
:1032480030BD00BF4A780B78012A00EB43100CD040
:10325800D0F8002B002A00DBD3B9D0F8003B43F4A8
:103268000013C0F8003B00207047D0F80029002A5E
:1032780006DB2BB1D0F8003923F08043C0F80039C1
:10328800D0F8003943F40013C0F800390020704723
:10329800D0F8003B23F08043C0F8003BDDE700BFD7
:1032A8004A780B78012A00EB431013D0D0F8003B82
:1032B80023F40013C0F8003B0B79023B012B01D922
:1032C80000207047D0F8003B43F08053C0F8003B23
:1032D80000207047D0F8003923F40013C0F80039F3
:1032E8000B79023B012BEBD8D0F8003943F080531F
:1032F800C0F8003900207047D0F8003823F4FE6386
:10330800C0F80038D0F80038090101F4FE6119430B
:10331800C0F8001800207047D0F8002E034622F0AD
:103328000302C3F8002ED3F8043800F5006123F037
:10333800020300204B607047D0F8002E034622F0AD
:103348000302C3F8002ED3F8043800F5006143F0F7
:10335800020300204B607047426980691040704743
:10336800D0F8183800F50060C0691840000C7047A4
:10337800D0F8183800F50060C069184080B270476E
:1033880000EB411100F50060D1F8082B40691040AE
:10339800704700BFD0F81028D0F8343800EB41103F
:1033A80001F00F01CB40DB01D0F80809DBB2134371
:1033B80018407047406900F001007047D0F80029B4
:1033C800034622F4FF6222F00702C3F80029D3F86B
:1033D800043800F5006143F4807300204B607047A7
:1033E80010B4144B046C9C421AD800F530600023CA
:1033F8000361036943F400230361036943F018037D
:1034080003610369012943F0C043036104D14261A8
:10341800036843F08023036000205DF8044B704785
:10342800D0F8003B002B00F53060E0DA00205DF8B2
:10343800044B70470A30544F4FF0E02382B01B69A9
:103448000193421C019B18BF01304FF0E022136921
:10345800DB03FCD50138FAD102B07047014B186084
:10346800704700BF0000002030B5D0F89C50D488C9
:10347800B2F804C0108853886A890134A4EB0C049C
:103488006244B5F808C085B0A4B2013384441B1A5D
:103498006868CDE9004101249BB292B21FFA8CF111
:1034A8000294FDF71AFD002005B030BD70B5D0F8C4
:1034B8009C6033685D68AA4228BF2A46144629B131
:1034C8000846196802F05EFF33685D681A682D1BAC
:1034D8002244C3E90025204670BD00BF30B5B1B015
:1034E800ADF81E209DF8D820BDF8D0500690012ACE
:1034F800ADF81C1002D0022031B030BD359A1A49FF
:10350800126803921C46359A05AB009352680492E0
:1035180003AA059242F6E063144A08A800F02AF8C4
:103528000028E9D1BDF83C30BDF83E20A34201DCBB
:10353800AA4209DDB4EB530F02DBB5EB520F10DAE8
:10354800B4EB930F07DA03200246094908A800F0F4
:10355800A3FC31B030BDB5EB920FB4BF03200220FD
:10356800F2E70120F0E700BFB5340008C0010020F1
:10357800713400082DE9F04F93B080460D4692460D
:103588001C98A0224FF0000B4146124303D001F8CB
:1035980001BB013AFBD1AD4AC8F89C001278C8F8C3
:1035A8009850B3F5806FC8E924A388F88820C0F044
:1035B800CC80A3F58063C8F894300AF58063C8F816
:1035C8009030C8F808A0BAF1000F00F03A815C46C4
:1035D8004FF6D87608E09AF8003043EA0424A4B2FB
:1035E800B4420DD0D8F89850012251464046A84719
:1035F80001280BF1010BEED0022013B0BDE8F08FCB
:10360800DFF85092CDF808B0D346D8F898300422A5
:103618005946404698470428EED1BBF80220BBF82B
:10362800003052BA92B25BBA022A9BB240F21782B9
:10363800190AFF2940F01382029CDBB2911C0C444A
:10364800DA2B0294A2F1020A00F04E8115D8C03B91
:103658009BB2192B08D87E4901229A400A4270D1A0
:10366800042B78D0D3071ED4D8F8983052460021BE
:10367800404698475045C8D0BEE7DB2B00F0EC80A9
:10368800DD2BF1D1BAF5806FB7D8D8F8983052460B
:103698005946404698475045AED1BBF800305BBA12
:1036A800A8F81A30B1E7BAF5806F00F2D383D8F8DA
:1036B8009830524659464046984750459CD1BBF8E9
:1036C80003305BBAA8F81C30BBF801305BBAA8F825
:1036D8001E309BF8052088F8132002F0FD03012B0B
:1036E8002FD19BF80730112B03D0A3F12101012919
:1036F80027D8190903F00F0388F80E1088F80F303F
:103708009BF8083088F81030032B1AD8012A3FF4A8
:103718007CAF9BF80A30112B13D19BF80B3088F83B
:103728001130032B0DD8032A7FF46FAF9BF80D30AF
:10373800112B06D19BF80E3088F81230032B7FF638
:1037480064AF082013B0BDE8F08F0320C8F808B0B4
:1037580013B0BDE8F08FBAF5806F00F27B83D8F81C
:103768009830524659464046984750457FF444AFF2
:10377800CDF81CB0CDF828A0CDF82080CDF840B009
:103788000A9B102B40F26B81079B197811F0EE020F
:1037980040F06581089BD3F894300F2B51D9089DD0
:1037A800103BC5F89430D5F8903003F11000C5F8F7
:1037B8009000002B45D00809022401F00F010E915A
:1037C80014FB010105EB8106079C336261781970CF
:1037D8000990A07858700844E178997008442179D4
:1037E800D9700844617919710844A179597108445C
:1037F800E17999710844217AD9710844617A19727A
:103808000844A17A59720844E17A99720844217BE4
:10381800D9720844617B19730844A17B0F96084448
:103828005973E17B99730144207CD87341180C913A
:103838004900D5F89400033121F00301814240F298
:103848001381032013B0BDE8F08F00BF9C00002057
:10385800EEEE0002F0630008BAF5806F3FF6CDAED9
:10386800D8F89830524659464046984750457FF414
:10387800C3AE0BF10207BAF1400F40F2F08017F81F
:10388800023C13F0F00F384640F0E980D8F8942055
:10389800FF2AD6D9D8F89050A2F58072C8F894209B
:1038A80005F58072C8F89020002DCAD003F00303F4
:1038B80014336C4A48F8235017F8013C5B032B601B
:1038C80002F13F0612F8011F10F8013B39F81140C8
:1038D800964204FB03F345F82130F3D1BAF1410ACB
:1038E80007F14107C7D190E65246B2F5806FDA4634
:1038F800DDF808B03FF681AED8F89830514640461A
:1039080014469847A0427FF477AEB8F81C30002BD5
:1039180000F0A580B8F81E30002B00F0A08098F8C1
:1039280013209AF8003093427FF40BAF002B3FD05E
:103938009AF8022012B1112A7FF403AFD8F8202098
:10394800002A00F08C80D8F82420002A00F0878014
:1039580098F81020143258F82220002A7FD0012B22
:1039680026D09AF8042012B1112A7FF4EAAED8F8CA
:103978002820002A73D0D8F82C20002A6FD098F875
:103988001120143258F82220002A68D0022B0FD0B8
:103998009AF8062012B1112A7FF4D3AE98F81220B3
:1039A800143258F82220002A59D0032B7FF4C9AECC
:1039B80098F80F3098F80E2013FB02F3002B4ED026
:1039C800DB0103F14000B0F5807FD8F8942038BFC0
:1039D8004FF48070B2EB400F4FEA4001C0F05482C0
:1039E800C8F88400D8F89000C8F87C00521A00245F
:1039F8000144C8F89420C8F89010C8F880400028FE
:103A08003FF41FAF03F580739A42C0F03882D21A90
:103A1800C8F894200B44CBF30902C8E923134AB130
:103A28009244D8F89830C2F580625146404698478B
:103A3800C8F80000C8F804A00020DEE50A461132E4
:103A4800204610440D9A0790511E04E0834201F865
:103A5800012F00F0258113F8012B0B2AF6D9062037
:103A6800CBE500BF70640008401A1190C5F89400B7
:103A7800D5F890000B9041180D91C5F890100028CA
:103A88003FF4DFAE93465A1E0F330692009230631E
:103A980005935A468646009B13F8018F009308F158
:103AA800FF340394B8F1000F00F0A4800EEB4B0133
:103AB8004B085B42092C03F003034FEA4B0040F22A
:103AC8008981002B00F056812EF80020501C0490AC
:103AD80086B2012BA8F102000BF10107019011D069
:103AE8004E80A8F10300961C032BB6B20BF1020717
:103AF800019007D103328E8096B2A8F104020BF12F
:103B08000307019200221146B01C60F30F01A8EBD5
:103B1800030A701C66F30F025B440EEB430360F369
:103B28001F424FEA9A0CF01C60F31F4103EBCC0CC8
:103B3800151D0020044665F30F00C2F30F451A60F7
:103B48002A1D62F31F400246081D60F30F04C1F3EB
:103B58000F405960011D083361F31F449C452146FD
:103B6800E6D12AF00302019B16445245B6B2174427
:103B7800A3EB020138D0731C2EF817609AB27F00AD
:103B8800002931D00EEB070301295A8006F1020201
:103B980092B229D09A80022906F1030292B223D068
:103BA800DA80032906F1040292B21DD01A81042991
:103BB80006F1050292B217D05A81052906F10602CC
:103BC80092B211D09A81062906F1070292B20BD05F
:103BD800DA81072906F1080292B205D00936B6B291
:103BE80008291A8218BF5E82DDE9032312FA83F3DB
:103BF800C3449AB2009B059952008B4292B27FF45B
:103C08004AAF0A9B0C99113B8B420393FFF427AFF1
:103C1800119ACB1C23F003039A42FFF412AE0D98BD
:103C2800089CD21A0344C4E9243200283FF409AEA0
:103C38000F9B079C186404F11103002900F01D81F3
:103C4800099A002A3FF4FAAE04F11202821A022AF3
:103C580040F203814A1E052A40F2FF808C0800EBDF
:103C680084040246194651F8040B42F8040BA24298
:103C7800F9D10C9D25F00302AA4203EB02010CD0F6
:103C88000D9E985CB054501C854206D902324C787F
:103C98003454954201D98978B1540C9A1344079346
:103CA800089BD3F89420099B002B00F0AC80B2F558
:103CB800006FFFF4C6AD089BA2F50062D3F890B080
:103CC800C3F894201A460BF50063C2F89030BBF194
:103CD800000F3FF4B6AD0E9B02EB83034FF0FF31AC
:103CE800C3F86CB04FF400725B46124303D043F83C
:103CF800041B013AFBD14FF0000C0D9ECDF804B027
:103D080001270020069B13F8014F069364B3012393
:103D1800C7F10A0503FA05FE099B4FEA071A4FEA9D
:103D2800072B73BB0B9B00F1004B0BF1FF3B00F122
:103D3800FF3803EB4B0BB0443BF8023F18F8012F58
:103D4800AB40C3F30903634442EA0A0271460943DC
:103D580003D003F8012B0139FBD1A6EB0803013B83
:103D68000344E342E8D120440A2F07F1010337D086
:103D78001F46C7E71646039A0192721C5F460492D3
:103D8800C0E60B9BCDF800C000F1004A0AF1FF3AEB
:103D980000F1FF38DDF804C003EB4A0AB0443AF8F2
:103DA800023F18F8012FAB40C3F309030CEB4303A0
:103DB80042EA0B027146094303D023F8022B01396A
:103DC800FBD1A6EB0803013B0344E342E7D1DDF84E
:103DD80000C0C8E7531C214616465F460493CAE64E
:103DE8000E9A089B03EB4203099A13440C9A83F832
:103DF8006500039B9B1A0A937FF4C2ACDDF8208010
:103E0800DDF840B001E4B2F5806FFFF41AAD089B0D
:103E1800A2F58062D3F890C0C3F894201A460CF536
:103E28008063C2F89030BCF1000F3FF40AAD0E9BDE
:103E380002EB83034FF0FF31C3F874C04FF4807274
:103E48006346124303D043F8041B013AFBD1DDF863
:103E580024B052E70420FFF7D0BB0C9A02F11100FE
:103E6800079A024410460D9A511E1A4612F8014B41
:103E780001F8014F9042F9D10FE7079313E7C8F80B
:103E88008C400320FFF7B9BB0023C8E92030C8F8ED
:103E98007C300320FFF7B1BB2DE9F04F9BB0032A1C
:103EA8000190179100F28A87817BC37B4273CA0015
:103EB800DB001292C28B1593002343610383002A0F
:103EC80000F01781808B139311930E93002800F054
:103ED800098100230B93019B5A8B32B111994B1C1A
:103EE8008A429BB200F0AE841193019CD4E91F234F
:103EF800A07BE17BD31810FB01F10793C1F101030B
:103F0800D4F88C000A934B1E0D910C900F930F9BC5
:103F18000A9A0D991344994200F2ED80002A00F0A4
:103F28007A84019BDB7C032B00F0818420234FF0F3
:103F380080110C9A1B4303D042F8041B013BFBD1B0
:103F48000A9B0C9A01338032032B0A930C92DED120
:103F5800019A0B9C917BD67B908B039108230D468D
:103F680013FB014115FB03FB81424FEAC603D2F85C
:103F78007CC00496D2F880200A9300F23C8459460B
:103F8800019B0E9E0A9CDB8BA5199D4288BF9B1B3B
:103F9800019E96F80D8098BF234631FA08F10D91DD
:103FA80000F0908033FA08F31D460F9300F08A80E2
:103FB8000B9820FA08F39BB2ADF86030013B0B4434
:103FC8000E99ADF8623021FA08F39BB2ADF864306F
:103FD800013B0CEB02042B44B8F1030F0C94ADF831
:103FE800663000F0228696F888E0BEF1010F40F2B4
:103FF8007484D6F88C400A9D0C9E002304EB0312AF
:10400800102D02D1082B28BF80320021BBF1100FE0
:1040180002D1082908BF703232F9020BBEF1020F33
:1040280004D180F3080006F8010B07E0A0F3C500EF
:1040380040EA801040EAC02026F8020B01315945B9
:10404800E4D30133AB42D9D3B8F1000F40F0A086D6
:104058000D9B2BFA08F5AB4227D2019B93F88820D9
:1040680002F0FD03012B00F01A842AB90D9B03EB23
:1040780043030D9305EB45050F9B012B15D00C9EB3
:10408800DDF834E0B44601247644AC443346624655
:104098007146094305D012F8010B03F8010B0139E9
:1040A800F9D10F9B0134A342EED1019D0C99179CC5
:1040B80018AA2846A04710F0FF0040F03F81D5F825
:1040C8008020A88B002A40F399830B9A12990A44FE
:1040D80001990B9200238242C1F88030FFF4FBAEB5
:1040E800019BDA8B0E9B15990B449A420E933FF66F
:1040F800EDAE002022E100230593099301990B7B83
:104108000C6E03F01F054FF0FF32AA4013F01006A3
:10411800D1E9000A24EA020440F0C082884698F8EF
:1041280064301BBB58B9D8F808A0D8F898304FF4B9
:104138008062514640469847002800F0A2821AF84B
:10414800013B0138002E00F03281002B00F09F82E5
:1041580088F86430FF2308350F2D43EA042400F261
:104168009D8298F864300026002BDBD005F1080307
:1041780024020F2B44F0FF0404D8240244F0FF0467
:1041880005F11003019D059A2C66C5E9000A05EBA7
:104198008202A3F10A01039224FA01F1526F565CDC
:1041A800FF2E00F07F820999A3EB16132A46DBB293
:1041B80002EB41092B7306F00F06B9F914B0002E73
:1041C80040F0B582019D099BEB1800211B7C14333C
:1041D80055F8233008931A46079B126802FB0BF226
:1041E800121243F8042B3F22124303D043F8041B56
:1041F800013AFBD14FF0010B514695F80C802C6E1B
:1042080008F01F064FF0FF33B34018F0100824EAF7
:10421800030440F0458295F86430002B48D100280B
:1042280053D1D5F80890D5F898304FF480624946B4
:1042380028469847002800F024824946013811F89A
:10424800013BB8F1000F48D0002B4FD085F86430FF
:10425800FF2343EA042406F108030F2B42D9C5E9DA
:104268000001039A2C66A3F10A06D26E24FA06F618
:1042780032F816804FF6FF72904539D0A3EB182616
:10428800F6B25FFA88F32E73002B72D00BEB131A79
:10429800BAF13F0F51D813F00F0840F08D80BAF1F2
:1042A8003F0F0AF1010B00F0F080D5E90001A4E707
:1042B80006F1080324020F2B44F0FF04CFD8240290
:1042C80044F0FF0406F11003C9E78946494601385E
:1042D80011F8013BB8F1000FB6D1FF2BB9D14FF05F
:1042E800010898E71E464FF0000894E7FF23B0E75F
:1042F800059E069305EBC60205EB4606D2F824C0D8
:1043080096F866E0566B526C06EB4E0696440CF136
:104318001002029203EB0C020CF10A08CCF1010A1C
:1043280004928C46724608EB0A0318F801EBBEF1BA
:10433800000F06D1029B9845F5D106201BB0BDE8B9
:10434800F08F0499A1EB0809964424FA09F961460B
:1043580003E00132724500F0988136F802CBE1455E
:10436800F7D11E46069B9E1BF6B22E731378002BC0
:104378008CD1019B93F88830023B012B40F25D827F
:10438800BBF1010F40F08880079B0C991B68002B3C
:10439800B8BFFF331B1280331AB242EA034220230C
:1043A8001B4303D041F8042B013BFBD1C8E5FF2B8D
:1043B8007FF4D1AE0126B2E606F01F064FF0FF33B8
:1043C800B340B04524EA030423D827E2002840F08C
:1043D8004481D5F808B0D5F898304FF48062594632
:1043E80028469847002800F04C815946013811F8B2
:1043F800013BB9F1000F00F03981002B00F03F813B
:1044080085F86430FF230836B04543EA042440F2B7
:1044180012824FF0000995F86430002BD6D006F1CF
:1044280008032402984544F0FF0404D9240244F008
:10443800FF0406F11003A3EB08032B7303F01F031B
:104448002C66DC40002CC5E900012146C0F2CF846F
:1044580008F1FF38012303FA08F3234203D15B0074
:10446800C3F101031919A64B13F80A20089B53F846
:10447800223001FB03F307991B12BAF13F0F41F8F1
:1044880022300AF1010B7FF410AF019B93F88830BA
:10449800023B012B40F2FD81019B5B7B032B3FF428
:1044A80073AF07990C984FF0080C51F8042BCB6B9D
:1044B800CC6FD1F8BC504FF4B55E5E1B0EFB06F610
:1044C800ED18C5EB2636171BF31902EB0408BC1BC5
:1044D80008EB0502A8EB0505D1F8DC60CF69D1F837
:1044E8009C80D1F85C9007EB060A09EB080E0EEBEE
:1044F8000A0BAAEB0E0A02EB0B0E41F804ECA2EB36
:104508000B02C1F8DC204FF4B55202FB0AFEA7EB00
:10451800060AA8EB09090AEB090641F6905202FBC4
:1045280006F6361342F6CF1202FB09F2A6EB223842
:10453800A8EB0B08C8EB2E3741F2511202FB0AF226
:10454800A6EB2236F61B03EB0802CA61A3EB0802AE
:10455800C1F8BC20E219CA63E21BC1F89C20AA1961
:10456800CA65AA1BCA67BCF1010C9ED14FF0080CA2
:10457800203951F8202B51F8183C51F8104C51F8BB
:10458800085C02F500424FF4B55E5E1B0EFB06F6B2
:10459800ED18C5EB2636171BF31902EB0408BC1BF4
:1045A80008EB0502A8EB050551F8046C51F81C7CD2
:1045B80051F80C8C51F8149C07EB060A09EB080E0D
:1045C8000EEB0A0BAAEB0E0A02EB0B0E4FEA2E2E8D
:1045D80020F810EBA2EB0B02121220F8022C4FF479
:1045E800B55202FB0AFEA7EB060AA8EB09090AEB7B
:1045F800090641F6905202FB06F6361342F6CF1230
:1046080002FB09F2A6EB2238A8EB0B08C8EB2E3701
:1046180041F2511202FB0AF2A6EB2236F61B03EB1B
:104628000802121220F80E2CA3EB0802121220F82E
:10463800042CE219121220F80C2CE21B121220F89A
:10464800062CAA19121220F80A2CAA1B121220F8FA
:10465800082CBCF1010C8CD172E48B465946013808
:1046680011F8013BB9F1000F7FF4C7AEFF2B7FF4BF
:10467800CAAEB04540F2DF804FF00109CBE6FF2318
:10468800C1E602201BB0BDE8F08F8C4652E6083523
:10469800FF230F2D43EA04247FF663AD2B4671E513
:1046A8003346DCE52946059D01EBC50201EB4501D2
:1046B800156B91F86560116A126C01F10A0EC1F16F
:1046C800010901F1100B591805EB46053244029116
:1046D8000EEB09011EF8016B46B9DE453FF42DAE1D
:1046E8000EEB09011EF8016B002EF6D006EB020C4A
:1046F800029EA6EB0E0824FA08F8664605E000BFFD
:10470800706400080132B242E7D035F802CBE045C8
:10471800F8D15B1A0199DBB20B7316780A4609992E
:1047280002EB4109B9F914B0002E3FF44BAD4FF03C
:10473800FF329A409E421D4624EA020440F2468314
:104748004FF000085346CA46B14626464446DDF8AF
:10475800048098F8642002BB60B9D8F80830029346
:1047680019464FF48062D8F8983040469847029B23
:10477800002886D013F8012B01389CB3CAB388F8F7
:104788006420FF220835A94542EA062640F219832B
:1047980098F864200024002ADED034464E46D146DC
:1047A8009A4608352402AE4244F0FF04F9D8019A2B
:1047B800AB1B137303F01F0324FA03F3002BC2E9A6
:1047C800000A14661946C0F20B83013E0122B2406A
:1047D8001A4203D15200C2F10102D1188B44A9F840
:1047E80014B0EFE4FF2ACDD1A94540F2EA820124B2
:1047F800AFE7FF22C6E7011BFFF7C2BB0B9A129C6B
:1048080001992244D1F884300B928242C1F8803059
:10481800FFF461AB64E4059209926FE4A6EB080328
:104828002B7303F01F032C66DC40214610E601239E
:104838000992059362E43346FDE5099B002B7FF45A
:104848007FAB9DE5019A92F8644055681168002C89
:1048580000F08182002344F47F4482F8643024F01D
:1048680027039BB24FF6D07293427FF466AD139A3A
:1048780084EA020313F007037FF45FAD013292B2BA
:104888001392019A13735361138301231193FFF752
:104898002CBB099B002B3FF4FFADFFF751BB0D9AD2
:1048A8004FEA420E0F9A012A4FEA45053FF4FDAB45
:1048B8000C9EB4467644AC440D9C32466146244373
:1048C80005D031F8020B22F8020B013CF9D10F9AFE
:1048D80001339A42EED1FFF7E8BB049B002B59D075
:1048E8004FEA0B13059300230293019BD3F88C60C6
:1048F8000A9B102B00F08F81059BF318029A06EB98
:104908000216039A002A39D00025B3F900C0B3F97A
:1049180080E0BBF1100FACF1800CAEF1800E00F01E
:10492800518131460233019AB1F9008092F888200A
:104938000236002A40F0E9802D2000FB0EF008EB3B
:10494800601080F3080A172000FB0EF10B2000FB13
:104958000C10A8EB601080F30809712000FB0CF024
:1049680008EBA01080F308020135AB4584F800A0DD
:1049780084F80190A27004F10304C6D1059A029B41
:10498800103205920A9A01339A420293ADD1019BE3
:1049980093F80D80B8F1000F3FF45AAB019B01204A
:1049A80093F888E000FA08F04FEA48030793ABEB66
:1049B800000ABEF1000F40F0FA810AEB4A0A03230D
:1049C800049A002A3FF444AB039A002A3FF440AB10
:1049D80003FB00F3099303FB0BF316930C9B109353
:1049E80000EB40020693002341001493D31CCDF83A
:1049F80020B0029204919B46109B039300230399D5
:104A0800059300283DD0002426462346A446BEF13F
:104A1800000F4ED1CA1C01EB0B0512F8038C43445E
:104A280012F8028C0332464412F8048CAA42444419
:104A3800F3D1029A8A180CF1010C604502EB0A01C5
:104A4800E5D1079AD340BEF1000F20D1069A079905
:104A580013701346CE40CC400333567094700693BF
:104A6800039A0999059B0A440392089A03449A42B7
:104A7800059340F2C180019B039993F888E00028D0
:104A8800C1D1034604460646BEF1000FDED0BEF192
:104A9800010F00F0A080BEF1020F00F0A8809BB2C9
:104AA8009A0142EAC3221343069A22F8023B06926D
:104AB800D6E7BEF1010F0FD0BEF1020F1ED0884617
:104AC800002538F8022B013502F01F02A8421344D2
:104AD800F7D1049A8A18AEE78846002538F8022BE1
:104AE8000135C2F3841903EBD223A84202F01F0256
:104AF8004E441444F2D1049A8A189CE70A1811F813
:104B0800015B8A422B44FAD195E72D2202FB0EF273
:104B180008EB6212A2F3C502172101FB0EF10B206C
:104B280000FB0C11A8EB6111A1F3C501712000FB7A
:104B38000CF008EBA010A0F3C50040EA811040EA91
:104B4800C2290135AB4524F8029B27D116E7324626
:104B58000233B2F9009002362D2202FB0EF209EB65
:104B68006212A2F3C502172101FB0EF10B2000FB14
:104B78000C11A9EB6111A1F3C501712000FB0CF028
:104B880009EBA010A0F3C50040EA811040EAC22852
:104B98000135AB4524F8028B7FF6F0AEB3F900C0BF
:104BA800B3F980E0BBF1100FACF1800CAEF1800ED0
:104BB800CDD1082D05F0010208BF703603EB420382
:104BC8003246C6E7082D05F0010208BF703603EB30
:104BD80042033146A7E6079AD44044EAC324D640A4
:104BE800069B44EA861423F8024B069338E7069A94
:104BF80002F8013B069233E7109A1699149B0A446F
:104C080010920A9A03449A42149340F29D80019BA1
:104C180093F888E0F0E6029A53082033072A06EB57
:104C280003137FF66BAE803668E60A9BD6F88C4095
:104C380003FB0BF304EB430234F913C0B2F980E031
:104C4800049BACF1800CAEF1800E002B3FF400AA5F
:104C5800039B002B3FF4FCA94FF0000A0C9BDDF8E6
:104C68000480CDF808A08034002522E02D2000FB28
:104C78000EF006EB601080F3080A172000FB0EF117
:104C88000B2000FB0C10A6EB601080F308097120C4
:104C980000FB0CF006EBA01080F3080283F800A0DC
:104CA80083F801909A7003330835AB4504F180040A
:104CB80016D998F8882034F9806C002AD6D0012AB1
:104CC8001BD0022A38D0A6F3C50040EA801242EA77
:104CD800C0220835AB4523F8022B04F18004E8D83C
:104CE800029A0A9908329142029228D9082AD8F8D9
:104CF8008C40B8D104F58074B5E72D2202FB0EF282
:104D080006EB6212A2F3C502172101FB0EF10B207C
:104D180000FB0C11A6EB6111A1F3C501712000FB8A
:104D28000CF006EBA010A0F3C50040EA811040EAA1
:104D3800C22923F8029BB7E703F8016BB4E7019B8C
:104D480093F80D80FFF784B9019BDDF820B093F844
:104D58000D80FFF77DB9904602264FF480624046E9
:104D680049B9D8F80850D8F89830294698470146E4
:104D780000283FF486AC15F8013B012E43EA0424D1
:104D880001F1FF31A4B210D1019BC3E9001566E51A
:104D9800012000FA08F04FEA48030793ABEB000A3A
:104DA800BEF1030F06D001230AE60126D5E7BEF1BE
:104DB800010FF5D14FEA4A0A022301E60520FFF761
:104DC800BDBA34464E46D1469A46F0E4019A9B1B3A
:104DD800137303F01F0324FA03F314661946F4E46B
:104DE8005B42D8B200283FF4B3A8FFF7A7BA6442E1
:104DF800E0B200283FF4ACA8FFF7A0BAD0F8D4324C
:104E080000EB830010B5D0F8C04284B1D0F8C432AA
:104E18005BB194F80002FF2807D09B6894F8012240
:104E280021469847FF2384F80032002010BD032054
:104E380010BD00BF0A230380004870471C010020F2
:104E480070B5822106460F4800F0F6FB01210546A1
:104E58000C4800F0F1FB812104460A4800F0ECFB05
:104E68000DB11022AA711CB100224021217162717A
:104E780018B1002240210171427143230148338057
:104E880070BD00BFD800002070B5822106460F48CB
:104E980000F0D2FB012105460C4800F0CDFB812132
:104EA80004460A4800F0C8FB0DB11022AA711CB1D3
:104EB800002102222171627118B1002102220171C0
:104EC800427143230148338070BD00BFD8000020E1
:104ED80038B5D0F8D432B03350F8235095B10446E1
:104EE80001F0D6F9D4F8D432C5F80C0204EB8304E7
:104EF800D5F80402D4F8C43205F50371DB68984785
:104F0800002038BD032038BD70B5D0F8D442D0F8A1
:104F1800C86200EB840EDEF8C05265B301F00F04DE
:104F280004EB840C00EB8C0C0A46DCF818306BB9E7
:104F3800DEF8C4321B690024C5F81442CBB1D5F899
:104F4800080205F504719847204670BD04EBC404B7
:104F580006EB8406B46CB3FBF4F604FB1634002CA1
:104F6800E6D1CCF818402346224601F075F92046D0
:104F780070BD184670BD032070BD00BFF0B5D0F8F5
:104F8800D43200EB830383B0D3F8C0720446002008
:104F98008DF80500ADF80600002F68D091F800C024
:104FA8001CF060060D461FD0202E07D0294620464B
:104FB80000F002FE0326304603B0F0BDCE888EB363
:104FC8001CF0800F57D13F2E4B7887F8003295BFE1
:104FD80032464023D3B21A4687F801323946204672
:104FE80000F036FE0026E6E74F780B2FDED801A347
:104FF80053F827F05F500008BF4F0008B54F00086E
:10500800B54F0008B54F0008B54F0008B54F000868
:10501800B54F0008B54F0008B54F000849500008C3
:105028003F500008D3F8C43248789B683246984706
:10503800304603B0F0BD94F89C32032BBBD0B5E7E3
:1050480094F89C32032BB1D101220DF105012046C1
:1050580000F0E8FDAFE794F89C32032BA6D10222BA
:105068000DF10601204600F0DDFD3E46A3E70326CC
:10507800304603B0F0BDD3F8C432324639469B6897
:10508800064668789847EA88072A394628BF0722DB
:10509800204600F0C7FD8EE738B50446002581217B
:1050A80001F08EF801212587204601F089F8A4F83F
:1050B80078518221204601F083F8D4F8D432E5648F
:1050C80004EB8303D3F8C0228AB1D3F8C4325B68F7
:1050D8009847D4F8D432B03354F8230001F0E0F8FC
:1050E800D4F8D432B03344F82350C4F8BC5200206A
:1050F80038BD00BF2DE9F04104464FF4077001F0B8
:10510800CBF80546002861D04FF40772002101F062
:105118000DF9D4F8D432B03344F82350237CC4F8C2
:10512800BC52D3B3402302228121204601F038F833
:105138000121218740230222204601F031F801276E
:1051480010220823A4F84E2082210322A4F87871A3
:10515800204601F025F8D4F8D432A4F84C7004EBBA
:1051680083030026D3F8C432C5F804621B68984745
:10517800D5F80422C5F81462C5F8186282B394F809
:105188001080B8F1000F18D14FF40073394620464B
:1051980001F070F84046BDE8F0814FF40073022238
:1051A8008121204600F0FCFF012121874FF4007384
:1051B8000222204600F0F4FFC1E74023394620468A
:1051C800B04601F057F84046BDE8F081D4F8D43233
:1051D800B0334FF0020844F823004046BDE8F081A0
:1051E8004FF00208D6E700BF70B5822106460F4887
:1051F80000F022FA012105460C4800F01DFA812131
:1052080004460A4800F018FA0DB11022AA711CB120
:10521800002240212171627118B1002240210171E0
:10522800427143230148338070BD00BFD80000207D
:10523800034639B1D0F8D42203EB82030020C3F827
:10524800C412704703207047D0F8D432B03350F8F6
:1052580023302BB1C3F80812C3F81022002070477E
:1052680003207047D0F8D432B03350F823301BB144
:10527800C3F804120020704703207047D0F8D432D6
:10528800B03350F8232092B110B5D2F814420CB1C3
:10529800012010BD0123C2F81432D2F81032D2F81E
:1052A8000822C362812100F0D7FF204610BD0320E9
:1052B800704700BFD0F8D422B03210B550F8222081
:1052C8008AB1047CD2F8042234B14023012100249D
:1052D80000F0D0FF204610BD4FF40073012100F00C
:1052E800C9FF204610BD0324204610BD78B1002315
:1052F800C0F8B832C0F8C432C0F8D03209B1C0F82A
:10530800B412012380F89C32027000F0FDBE032025
:10531800704700BF10B582B00023ADF8063089B1E0
:10532800CB6AC0F8B812044623B10DF106009847BD
:10533800C4F8D002D4F8D83200200133C4F8D832E7
:1053480002B010BD032002B010BD00BF00F01ABFAC
:10535800D0F8B8320BB11B6818471846704700BF21
:1053680008B5D0F8B8325B689847002818BF032002
:1053780008BD00BF38B5044600F2AA25284600F04B
:105388000FFC94F8AA12B4F8B022C4F898220123AA
:10539800C4F8943201F01F03012B09D0022B13D05B
:1053A80063B1204601F08001BDE8384000F016BF27
:1053B80029462046BDE8384000F00EBB2946204665
:1053C800BDE8384000F04EB929462046BDE83840CF
:1053D80000F03CBB10B5044631B99446D0F894228D
:1053E800032A10D0002010BD90F89C32032BF9D16D
:1053F800D0F8B8329B69002BF4D00022BDE81040E9
:10540800C0F8D42218470B46D0E95712914208D861
:1054180090F89C22032A0ED0204600F02FFC002092
:1054280010BD891A8A4228BF0A46C0F85C11614635
:1054380000F01CFCD6E7D0F8B8221269002AEBD09D
:10544800C0F8D4329047E7E770B5044661B913460F
:10545800D0F89422022A16D094F8A03213B100236F
:1054680084F8A032002070BD90F89C32032BF9D14B
:10547800D0F8B8325B69002BF4D00022BDE8704048
:10548800C0F8D4221847D0E90726B2420D4610D8F2
:105498001BD094F89C32032B24D08021204600F0A6
:1054A8009DFE204600F0F6FB94F8A032002BD9D0E0
:1054B800D5E7921BC261194600F0C2FB2B462A466B
:1054C8002946204600F0D6FEC6E783699A42E0D80E
:1054D800D0F898229342DCD20A4600F0B1FBC4F817
:1054E8009852EBE7D4F8B832DB68002BD5D000220D
:1054F800C4F8D42220469847CFE700BFF8B5D0F8C3
:10550800B8320021012280F89C2204464160C0F88C
:105518009412C0F8A41280F8A0121BB15B680BB1FA
:105528009847B0B90027002240231D46114601269E
:10553800204600F035FEA4F86461C4F860512B469B
:1055480000228021204600F02BFEA68425623846E2
:10555800F8BD0327E7E700BF01740020704700BFCC
:1055680090F89C2203460421D2B283F89D220020A1
:1055780083F89C12704700BF90F89C32042B04D12A
:1055880090F89D32DBB280F89C320020704700BF53
:1055980090F89C22032A01D00020704708B5D0F863
:1055A800B83213B1DB6903B19847002008BD00BFCA
:1055B800D0F8D422AE3250F822205AB108B590F86B
:1055C8009C32032B01D0002008BD136A23B19847F1
:1055D800002008BD03207047184608BDD0F8D42223
:1055E800AE3250F822205AB108B590F89C32032BFD
:1055F80001D0002008BD536A23B19847002008BD98
:1056080003207047184608BD00207047D0F8B8221C
:10561800012180F89C1242B108B55268017990477F
:1056280008B9002008BD032008BD0020704700BF4E
:1056380000207047002070470278B0F802C09445F7
:1056480093B203D80CE09C450AD90278104413445D
:105658004278052A9BB2F6D182788A42F3D1704704
:10566800002070472DE9F0410C7804F06004202CEC
:1056780082B00E4605460FD0402C0DD0C4B1802113
:10568800284600F0ABFD0021284600F0A7FD0024C5
:10569800204602B0BDE8F081D5F8D432AE333146A9
:1056A80055F823309B68284602B0BDE8F0411847FA
:1056B8004F78092FE3D801A353F827F0295700089A
:1056C8005357000887560008715700088756000886
:1056D80095570008CD57000887560008015800085C
:1056E800ED5600088E78B54F012E3E7000F24781C6
:1056F80090F89C32022B5FFA83F800F00281B8F12F
:10570800030F00F01381802100F068FD0021284676
:1057180000F064FD39782846FFF722FE0324B7E736
:1057280090F89C32013B022B24D8CA88022A21D146
:10573800D0F8A4320146002B14BF0323012341F8FB
:105748000C3F00F06FFA3C46A2E790F89C32013B10
:10575800022B0FD84B88012B9AD10023C5F8A4320D
:10576800284600F08BFA93E74B88012BF6D0022BE2
:1057780000F0FE808021284600F030FD00212846F8
:1057880000F02CFD204602B0BDE8F0818B88002B8C
:10579800F0D1CB88002BEDD14E887F2EEAD890F837
:1057A8009C32032BE6D0F1B280F89E1200F046FD41
:1057B800284600F063FA002E00F00981022385F8DC
:1057C8009C3265E74A880023ADF80630130A013B8E
:1057D800062BCFD801A151F823F000BF9B58000831
:1057E80081580008715800087D5700087D57000847
:1057F8005D58000825580008CA88012ABAD190F8CF
:105808009C120229CBB275D8002B3FF438AF014661
:10581800002341F8083F00F005FA39E7037C002B24
:10582800A8D1D0F8B8320DF106001B6B98470723B2
:105838004370F288002A93D0BDF80630002B99D027
:105848009A4228BF1A4601462846ADF8062000F0BD
:10585800E9F91DE7037C002B8CD1D0F8B8320DF1A3
:1058680006005B6B9847E4E7D2B2052A82D8DFE8E6
:1058780002F03B352F292318037C002B40F094803D
:10588800D0F8B8320DF106009B6A9847022343709E
:10589800CFE7D0F8B432007C1B680DF106019847B9
:1058A800C7E7D0F8B4329B69002B3FF463AF287C7C
:1058B8000DF106019847BCE7D0F8B4325B69002BBC
:1058C800F5D157E7D0F8B4321B69002BEFD151E777
:1058D800D0F8B432DB68002BE9D14BE7D0F8B4320A
:1058E8009B68002BE3D145E7D0F8B4325B68002B06
:1058F800DDD13FE7032B7FF4C2AE011D00F092F922
:10590800C6E6002E3FF42CAF01214160FFF720FDD1
:105918000446002854D08021284600F05FFC00216E
:10592800284600F05BFC85F89C82B1E686B34168A6
:1059380001293FF415AFC9B2FFF712FD3978696044
:105948002846FFF705FD064600283FF409AF8021E9
:10595800284600F043FC0021284600F03FFC297946
:105968002846FFF7FDFC022385F89C3234468FE673
:105978008B881B0A80F8A03200F080F988E6802125
:1059880000F02CFC0021284600F028FC03247FE6C8
:105998000223314680F89C324660FFF7E1FC284636
:1059A80000F06CF9344673E6D0F8B8320DF1060011
:1059B800DB6A9847022343703BE700BFA030002012
:1059C800284600F05BF9032385F89C3260E6012342
:1059D80085F89C325CE600BF38B50B7803F06002AE
:1059E800402A0D4604460BD05B0609D5802100F0FD
:1059F800F5FB0021204600F0F1FB0025284638BDC4
:105A080094F89C32013B022B02D82979012902D94A
:105A180080212046EBE72046FFF70AFE90B9D4F82C
:105A2800B8329B6873B1C4F8D40229462046984717
:105A3800EB880546002BE1D10028DFD1204600F095
:105A48001DF9DBE70325284638BD00BF30B50C46F5
:105A58008A88237803F06003202B83B00546D1B2EF
:105A68001ED0402B1CD06BB38021284600F0B6FB1B
:105A78000021284600F0B2FB002003B030BD90F8AA
:105A88009C32022BDAB25DD0032AEDD16388002B59
:105A9800F2D14B067AD12846019100F0EFF801992E
:105AA8002846FFF7C7FD0028E6D1D5F8B832C5F873
:105AB800D4029B68002BDFD02146284603B0BDE8FE
:105AC800304018476378012BD9D0032B29D0002BFD
